{
  "_format": "hh-sol-artifact-1",
  "contractName": "ArbitroChain",
  "sourceName": "contracts/ArbitroChain.sol",
  "abi": [
    {
      "inputs": [
        {
          "internalType": "address",
          "name": "_grullToken",
          "type": "address"
        }
      ],
      "stateMutability": "nonpayable",
      "type": "constructor"
    },
    {
      "anonymous": false,
      "inputs": [
        {
          "indexed": true,
          "internalType": "uint256",
          "name": "disputeId",
          "type": "uint256"
        },
        {
          "indexed": true,
          "internalType": "address",
          "name": "companyA",
          "type": "address"
        },
        {
          "indexed": true,
          "internalType": "address",
          "name": "companyB",
          "type": "address"
        }
      ],
      "name": "DisputeRaised",
      "type": "event"
    },
    {
      "anonymous": false,
      "inputs": [
        {
          "indexed": true,
          "internalType": "uint256",
          "name": "disputeId",
          "type": "uint256"
        },
        {
          "indexed": false,
          "internalType": "address",
          "name": "winner",
          "type": "address"
        }
      ],
      "name": "DisputeResolved",
      "type": "event"
    },
    {
      "inputs": [
        {
          "internalType": "uint256",
          "name": "",
          "type": "uint256"
        }
      ],
      "name": "allArbitrators",
      "outputs": [
        {
          "internalType": "address",
          "name": "",
          "type": "address"
        }
      ],
      "stateMutability": "view",
      "type": "function"
    },
    {
      "inputs": [
        {
          "internalType": "address",
          "name": "",
          "type": "address"
        }
      ],
      "name": "arbitratorStakes",
      "outputs": [
        {
          "internalType": "uint256",
          "name": "",
          "type": "uint256"
        }
      ],
      "stateMutability": "view",
      "type": "function"
    },
    {
      "inputs": [
        {
          "internalType": "address",
          "name": "",
          "type": "address"
        }
      ],
      "name": "companies",
      "outputs": [
        {
          "internalType": "string",
          "name": "name",
          "type": "string"
        },
        {
          "internalType": "bool",
          "name": "exists",
          "type": "bool"
        }
      ],
      "stateMutability": "view",
      "type": "function"
    },
    {
      "inputs": [
        {
          "internalType": "uint256",
          "name": "_amount",
          "type": "uint256"
        }
      ],
      "name": "depositStake",
      "outputs": [],
      "stateMutability": "nonpayable",
      "type": "function"
    },
    {
      "inputs": [
        {
          "internalType": "uint256",
          "name": "",
          "type": "uint256"
        }
      ],
      "name": "disputes",
      "outputs": [
        {
          "internalType": "address",
          "name": "companyA",
          "type": "address"
        },
        {
          "internalType": "address",
          "name": "companyB",
          "type": "address"
        },
        {
          "internalType": "uint256",
          "name": "voteA",
          "type": "uint256"
        },
        {
          "internalType": "uint256",
          "name": "voteB",
          "type": "uint256"
        },
        {
          "internalType": "bool",
          "name": "resolved",
          "type": "bool"
        }
      ],
      "stateMutability": "view",
      "type": "function"
    },
    {
      "inputs": [
        {
          "internalType": "address",
          "name": "_arbitrator",
          "type": "address"
        }
      ],
      "name": "getArbitratorStake",
      "outputs": [
        {
          "internalType": "uint256",
          "name": "",
          "type": "uint256"
        }
      ],
      "stateMutability": "view",
      "type": "function"
    },
    {
      "inputs": [
        {
          "internalType": "address",
          "name": "_companyAddress",
          "type": "address"
        }
      ],
      "name": "getCompanyName",
      "outputs": [
        {
          "internalType": "string",
          "name": "",
          "type": "string"
        }
      ],
      "stateMutability": "view",
      "type": "function"
    },
    {
      "inputs": [],
      "name": "grullToken",
      "outputs": [
        {
          "internalType": "contract IERC20",
          "name": "",
          "type": "address"
        }
      ],
      "stateMutability": "view",
      "type": "function"
    },
    {
      "inputs": [
        {
          "internalType": "address",
          "name": "_companyB",
          "type": "address"
        }
      ],
      "name": "raiseDispute",
      "outputs": [],
      "stateMutability": "nonpayable",
      "type": "function"
    },
    {
      "inputs": [
        {
          "internalType": "string",
          "name": "_name",
          "type": "string"
        }
      ],
      "name": "registerCompany",
      "outputs": [],
      "stateMutability": "nonpayable",
      "type": "function"
    },
    {
      "inputs": [
        {
          "internalType": "uint256",
          "name": "_disputeId",
          "type": "uint256"
        },
        {
          "internalType": "uint8",
          "name": "_vote",
          "type": "uint8"
        }
      ],
      "name": "vote",
      "outputs": [],
      "stateMutability": "nonpayable",
      "type": "function"
    }
  ],
  "bytecode": "0x608060405234801561001057600080fd5b5060405161285b38038061285b833981810160405281019061003291906100db565b806000806101000a81548173ffffffffffffffffffffffffffffffffffffffff021916908373ffffffffffffffffffffffffffffffffffffffff16021790555050610108565b600080fd5b600073ffffffffffffffffffffffffffffffffffffffff82169050919050565b60006100a88261007d565b9050919050565b6100b88161009d565b81146100c357600080fd5b50565b6000815190506100d5816100af565b92915050565b6000602082840312156100f1576100f0610078565b5b60006100ff848285016100c6565b91505092915050565b612744806101176000396000f3fe608060405234801561001057600080fd5b50600436106100a85760003560e01c8063943e821611610071578063943e82161461018e5780639908ff06146101aa578063a4ef7031146101c6578063ad4eac36146101f6578063c9cf5ddf14610226578063cb82cc8f14610244576100a8565b8062544194146100ad578063355e6ce8146100c9578063461605c6146100fa578063564a565d1461012a57806373fc5db81461015e575b600080fd5b6100c760048036038101906100c29190611933565b610260565b005b6100e360048036038101906100de91906119da565b610383565b6040516100f1929190611aa1565b60405180910390f35b610114600480360381019061010f91906119da565b61043c565b6040516101219190611aea565b60405180910390f35b610144600480360381019061013f9190611b31565b610454565b604051610155959493929190611b6d565b60405180910390f35b61017860048036038101906101739190611b31565b6104e7565b6040516101859190611bc0565b60405180910390f35b6101a860048036038101906101a39190611c14565b610526565b005b6101c460048036038101906101bf91906119da565b6107fa565b005b6101e060048036038101906101db91906119da565b610a58565b6040516101ed9190611c54565b60405180910390f35b610210600480360381019061020b91906119da565b610bbb565b60405161021d9190611aea565b60405180910390f35b61022e610c04565b60405161023b9190611cd5565b60405180910390f35b61025e60048036038101906102599190611b31565b610c28565b005b600160003373ffffffffffffffffffffffffffffffffffffffff1673ffffffffffffffffffffffffffffffffffffffff16815260200190815260200160002060010160009054906101000a900460ff16156102f0576040517f08c379a00000000000000000000000000000000000000000000000000000000081526004016102e790611d3c565b60405180910390fd5b604051806040016040528082815260200160011515815250600160003373ffffffffffffffffffffffffffffffffffffffff1673ffffffffffffffffffffffffffffffffffffffff168152602001908152602001600020600082015181600001908161035c9190611f5e565b5060208201518160010160006101000a81548160ff02191690831515021790555090505050565b60016020528060005260406000206000915090508060000180546103a690611d8b565b80601f01602080910402602001604051908101604052809291908181526020018280546103d290611d8b565b801561041f5780601f106103f45761010080835404028352916020019161041f565b820191906000526020600020905b81548152906001019060200180831161040257829003601f168201915b5050505050908060010160009054906101000a900460ff16905082565b60026020528060005260406000206000915090505481565b6004818154811061046457600080fd5b90600052602060002090600802016000915090508060000160009054906101000a900473ffffffffffffffffffffffffffffffffffffffff16908060010160009054906101000a900473ffffffffffffffffffffffffffffffffffffffff16908060050154908060060154908060070160009054906101000a900460ff16905085565b600381815481106104f757600080fd5b906000526020600020016000915054906101000a900473ffffffffffffffffffffffffffffffffffffffff1681565b60006004838154811061053c5761053b612030565b5b906000526020600020906008020190508060030160003373ffffffffffffffffffffffffffffffffffffffff1673ffffffffffffffffffffffffffffffffffffffff16815260200190815260200160002060009054906101000a900460ff16156105db576040517f08c379a00000000000000000000000000000000000000000000000000000000081526004016105d2906120ab565b60405180910390fd5b6105e58333610e10565b610624576040517f08c379a000000000000000000000000000000000000000000000000000000000815260040161061b90612117565b60405180910390fd5b60018260ff161480610639575060028260ff16145b610678576040517f08c379a000000000000000000000000000000000000000000000000000000000815260040161066f90612183565b60405180910390fd5b60018160030160003373ffffffffffffffffffffffffffffffffffffffff1673ffffffffffffffffffffffffffffffffffffffff16815260200190815260200160002060006101000a81548160ff02191690831515021790555060018260ff1603610757578060050160008154809291906106f2906121d2565b919050555060018160040160003373ffffffffffffffffffffffffffffffffffffffff1673ffffffffffffffffffffffffffffffffffffffff16815260200190815260200160002060006101000a81548160ff021916908360ff1602179055506107cd565b80600601600081548092919061076c906121d2565b919050555060028160040160003373ffffffffffffffffffffffffffffffffffffffff1673ffffffffffffffffffffffffffffffffffffffff16815260200190815260200160002060006101000a81548160ff021916908360ff1602179055505b600860ff16816006015482600501546107e6919061221a565b036107f5576107f483610ede565b5b505050565b600160003373ffffffffffffffffffffffffffffffffffffffff1673ffffffffffffffffffffffffffffffffffffffff16815260200190815260200160002060010160009054906101000a900460ff16610889576040517f08c379a00000000000000000000000000000000000000000000000000000000081526004016108809061229a565b60405180910390fd5b600160008273ffffffffffffffffffffffffffffffffffffffff1673ffffffffffffffffffffffffffffffffffffffff16815260200190815260200160002060010160009054906101000a900460ff16610918576040517f08c379a000000000000000000000000000000000000000000000000000000000815260040161090f90612306565b60405180910390fd5b6000610922611042565b9050600060046001816001815401808255809150500390600052602060002090600802019050338160000160006101000a81548173ffffffffffffffffffffffffffffffffffffffff021916908373ffffffffffffffffffffffffffffffffffffffff160217905550828160010160006101000a81548173ffffffffffffffffffffffffffffffffffffffff021916908373ffffffffffffffffffffffffffffffffffffffff160217905550818160020190805190602001906109e6929190611732565b508273ffffffffffffffffffffffffffffffffffffffff163373ffffffffffffffffffffffffffffffffffffffff166001600480549050610a279190612326565b7f32c3577ad32544a8c06c1b330ada404f03a4d405574e524dd6d86eeba5f21e7360405160405180910390a4505050565b6060600160008373ffffffffffffffffffffffffffffffffffffffff1673ffffffffffffffffffffffffffffffffffffffff16815260200190815260200160002060010160009054906101000a900460ff16610ae9576040517f08c379a0000000000000000000000000000000000000000000000000000000008152600401610ae0906123a6565b60405180910390fd5b600160008373ffffffffffffffffffffffffffffffffffffffff1673ffffffffffffffffffffffffffffffffffffffff1681526020019081526020016000206000018054610b3690611d8b565b80601f0160208091040260200160405190810160405280929190818152602001828054610b6290611d8b565b8015610baf5780601f10610b8457610100808354040283529160200191610baf565b820191906000526020600020905b815481529060010190602001808311610b9257829003601f168201915b50505050509050919050565b6000600260008373ffffffffffffffffffffffffffffffffffffffff1673ffffffffffffffffffffffffffffffffffffffff168152602001908152602001600020549050919050565b60008054906101000a900473ffffffffffffffffffffffffffffffffffffffff1681565b60008111610c6b576040517f08c379a0000000000000000000000000000000000000000000000000000000008152600401610c6290612412565b60405180910390fd5b60008054906101000a900473ffffffffffffffffffffffffffffffffffffffff1673ffffffffffffffffffffffffffffffffffffffff166323b872dd3330846040518463ffffffff1660e01b8152600401610cc893929190612432565b6020604051808303816000875af1158015610ce7573d6000803e3d6000fd5b505050506040513d601f19601f82011682018060405250810190610d0b9190612495565b506000600260003373ffffffffffffffffffffffffffffffffffffffff1673ffffffffffffffffffffffffffffffffffffffff1681526020019081526020016000205403610db7576003339080600181540180825580915050600190039060005260206000200160009091909190916101000a81548173ffffffffffffffffffffffffffffffffffffffff021916908373ffffffffffffffffffffffffffffffffffffffff1602179055505b80600260003373ffffffffffffffffffffffffffffffffffffffff1673ffffffffffffffffffffffffffffffffffffffff1681526020019081526020016000206000828254610e06919061221a565b9250508190555050565b60008060048481548110610e2757610e26612030565b5b9060005260206000209060080201905060005b600860ff16811015610ed1578373ffffffffffffffffffffffffffffffffffffffff16826002018281548110610e7357610e72612030565b5b9060005260206000200160009054906101000a900473ffffffffffffffffffffffffffffffffffffffff1673ffffffffffffffffffffffffffffffffffffffff1603610ec457600192505050610ed8565b8080600101915050610e3a565b5060009150505b92915050565b600060048281548110610ef457610ef3612030565b5b906000526020600020906008020190508060070160009054906101000a900460ff1615610f56576040517f08c379a0000000000000000000000000000000000000000000000000000000008152600401610f4d9061250e565b60405180910390fd5b60008160060154826005015411610f91578160010160009054906101000a900473ffffffffffffffffffffffffffffffffffffffff16610fb7565b8160000160009054906101000a900473ffffffffffffffffffffffffffffffffffffffff165b905060008260060154836005015411610fd4578260050154610fda565b82600601545b9050610fe78483836113c9565b60018360070160006101000a81548160ff021916908315150217905550837ff77ceb5e091d2da041bc760667f9d5fe7a756949eaf29250ad0e60ca6f4c27d9836040516110349190611bc0565b60405180910390a250505050565b60606000600860ff1667ffffffffffffffff81111561106457611063611808565b5b6040519080825280602002602001820160405280156110925781602001602082028036833780820191505090505b5090506000805b60038054905081101561113e5760026000600383815481106110be576110bd612030565b5b9060005260206000200160009054906101000a900473ffffffffffffffffffffffffffffffffffffffff1673ffffffffffffffffffffffffffffffffffffffff1673ffffffffffffffffffffffffffffffffffffffff168152602001908152602001600020548261112f919061221a565b91508080600101915050611099565b5060008111611182576040517f08c379a0000000000000000000000000000000000000000000000000000000008152600401611179906125a0565b60405180910390fd5b600060038054905067ffffffffffffffff8111156111a3576111a2611808565b5b6040519080825280602002602001820160405280156111d15781602001602082028036833780820191505090505b50905060005b600860ff168160ff1610156113bf576000834244846040516020016111fe93929190612617565b6040516020818303038152906040528051906020012060001c6112219190612683565b90506000805b6003805490508110156113af5784818151811061124757611246612030565b5b60200260200101516113a257600260006003838154811061126b5761126a612030565b5b9060005260206000200160009054906101000a900473ffffffffffffffffffffffffffffffffffffffff1673ffffffffffffffffffffffffffffffffffffffff1673ffffffffffffffffffffffffffffffffffffffff16815260200190815260200160002054826112dc919061221a565b9150818310156113a157600381815481106112fa576112f9612030565b5b9060005260206000200160009054906101000a900473ffffffffffffffffffffffffffffffffffffffff16878560ff168151811061133b5761133a612030565b5b602002602001019073ffffffffffffffffffffffffffffffffffffffff16908173ffffffffffffffffffffffffffffffffffffffff1681525050600185828151811061138a57611389612030565b5b6020026020010190151590811515815250506113af565b5b8080600101915050611227565b50505080806001019150506111d7565b5082935050505090565b6000600484815481106113df576113de612030565b5b906000526020600020906008020190506000805b600860ff1681101561155b57600083600201828154811061141757611416612030565b5b9060005260206000200160009054906101000a900473ffffffffffffffffffffffffffffffffffffffff1690508360000160009054906101000a900473ffffffffffffffffffffffffffffffffffffffff1673ffffffffffffffffffffffffffffffffffffffff168673ffffffffffffffffffffffffffffffffffffffff16146114a25760016114a5565b60025b60ff168460040160008373ffffffffffffffffffffffffffffffffffffffff1673ffffffffffffffffffffffffffffffffffffffff16815260200190815260200160002060009054906101000a900460ff1660ff160361154d57600260008273ffffffffffffffffffffffffffffffffffffffff1673ffffffffffffffffffffffffffffffffffffffff168152602001908152602001600020548361154a919061221a565b92505b5080806001019150506113f3565b5060005b600860ff1681101561172a57600083600201828154811061158357611582612030565b5b9060005260206000200160009054906101000a900473ffffffffffffffffffffffffffffffffffffffff1690508360000160009054906101000a900473ffffffffffffffffffffffffffffffffffffffff1673ffffffffffffffffffffffffffffffffffffffff168673ffffffffffffffffffffffffffffffffffffffff161461160e576002611611565b60015b60ff168460040160008373ffffffffffffffffffffffffffffffffffffffff1673ffffffffffffffffffffffffffffffffffffffff16815260200190815260200160002060009054906101000a900460ff1660ff160361171c576000858461167991906126b4565b905060008054906101000a900473ffffffffffffffffffffffffffffffffffffffff1673ffffffffffffffffffffffffffffffffffffffff1663a9059cbb83836040518363ffffffff1660e01b81526004016116d69291906126e5565b6020604051808303816000875af11580156116f5573d6000803e3d6000fd5b505050506040513d601f19601f820116820180604052508101906117199190612495565b50505b50808060010191505061155f565b505050505050565b8280548282559060005260206000209081019282156117ab579160200282015b828111156117aa5782518260006101000a81548173ffffffffffffffffffffffffffffffffffffffff021916908373ffffffffffffffffffffffffffffffffffffffff16021790555091602001919060010190611752565b5b5090506117b891906117bc565b5090565b5b808211156117d55760008160009055506001016117bd565b5090565b6000604051905090565b600080fd5b600080fd5b600080fd5b600080fd5b6000601f19601f8301169050919050565b7f4e487b7100000000000000000000000000000000000000000000000000000000600052604160045260246000fd5b611840826117f7565b810181811067ffffffffffffffff8211171561185f5761185e611808565b5b80604052505050565b60006118726117d9565b905061187e8282611837565b919050565b600067ffffffffffffffff82111561189e5761189d611808565b5b6118a7826117f7565b9050602081019050919050565b82818337600083830152505050565b60006118d66118d184611883565b611868565b9050828152602081018484840111156118f2576118f16117f2565b5b6118fd8482856118b4565b509392505050565b600082601f83011261191a576119196117ed565b5b813561192a8482602086016118c3565b91505092915050565b600060208284031215611949576119486117e3565b5b600082013567ffffffffffffffff811115611967576119666117e8565b5b61197384828501611905565b91505092915050565b600073ffffffffffffffffffffffffffffffffffffffff82169050919050565b60006119a78261197c565b9050919050565b6119b78161199c565b81146119c257600080fd5b50565b6000813590506119d4816119ae565b92915050565b6000602082840312156119f0576119ef6117e3565b5b60006119fe848285016119c5565b91505092915050565b600081519050919050565b600082825260208201905092915050565b60005b83811015611a41578082015181840152602081019050611a26565b60008484015250505050565b6000611a5882611a07565b611a628185611a12565b9350611a72818560208601611a23565b611a7b816117f7565b840191505092915050565b60008115159050919050565b611a9b81611a86565b82525050565b60006040820190508181036000830152611abb8185611a4d565b9050611aca6020830184611a92565b9392505050565b6000819050919050565b611ae481611ad1565b82525050565b6000602082019050611aff6000830184611adb565b92915050565b611b0e81611ad1565b8114611b1957600080fd5b50565b600081359050611b2b81611b05565b92915050565b600060208284031215611b4757611b466117e3565b5b6000611b5584828501611b1c565b91505092915050565b611b678161199c565b82525050565b600060a082019050611b826000830188611b5e565b611b8f6020830187611b5e565b611b9c6040830186611adb565b611ba96060830185611adb565b611bb66080830184611a92565b9695505050505050565b6000602082019050611bd56000830184611b5e565b92915050565b600060ff82169050919050565b611bf181611bdb565b8114611bfc57600080fd5b50565b600081359050611c0e81611be8565b92915050565b60008060408385031215611c2b57611c2a6117e3565b5b6000611c3985828601611b1c565b9250506020611c4a85828601611bff565b9150509250929050565b60006020820190508181036000830152611c6e8184611a4d565b905092915050565b6000819050919050565b6000611c9b611c96611c918461197c565b611c76565b61197c565b9050919050565b6000611cad82611c80565b9050919050565b6000611cbf82611ca2565b9050919050565b611ccf81611cb4565b82525050565b6000602082019050611cea6000830184611cc6565b92915050565b7f436f6d70616e7920616c72656164792072656769737465726564000000000000600082015250565b6000611d26601a83611a12565b9150611d3182611cf0565b602082019050919050565b60006020820190508181036000830152611d5581611d19565b9050919050565b7f4e487b7100000000000000000000000000000000000000000000000000000000600052602260045260246000fd5b60006002820490506001821680611da357607f821691505b602082108103611db657611db5611d5c565b5b50919050565b60008190508160005260206000209050919050565b60006020601f8301049050919050565b600082821b905092915050565b600060088302611e1e7fffffffffffffffffffffffffffffffffffffffffffffffffffffffffffffffff82611de1565b611e288683611de1565b95508019841693508086168417925050509392505050565b6000611e5b611e56611e5184611ad1565b611c76565b611ad1565b9050919050565b6000819050919050565b611e7583611e40565b611e89611e8182611e62565b848454611dee565b825550505050565b600090565b611e9e611e91565b611ea9818484611e6c565b505050565b5b81811015611ecd57611ec2600082611e96565b600181019050611eaf565b5050565b601f821115611f1257611ee381611dbc565b611eec84611dd1565b81016020851015611efb578190505b611f0f611f0785611dd1565b830182611eae565b50505b505050565b600082821c905092915050565b6000611f3560001984600802611f17565b1980831691505092915050565b6000611f4e8383611f24565b9150826002028217905092915050565b611f6782611a07565b67ffffffffffffffff811115611f8057611f7f611808565b5b611f8a8254611d8b565b611f95828285611ed1565b600060209050601f831160018114611fc85760008415611fb6578287015190505b611fc08582611f42565b865550612028565b601f198416611fd686611dbc565b60005b82811015611ffe57848901518255600182019150602085019450602081019050611fd9565b8683101561201b5784890151612017601f891682611f24565b8355505b6001600288020188555050505b505050505050565b7f4e487b7100000000000000000000000000000000000000000000000000000000600052603260045260246000fd5b7f416c726561647920766f74656400000000000000000000000000000000000000600082015250565b6000612095600d83611a12565b91506120a08261205f565b602082019050919050565b600060208201905081810360008301526120c481612088565b9050919050565b7f4e6f7420612073656c65637465642061726269747261746f7200000000000000600082015250565b6000612101601983611a12565b915061210c826120cb565b602082019050919050565b60006020820190508181036000830152612130816120f4565b9050919050565b7f496e76616c696420766f74650000000000000000000000000000000000000000600082015250565b600061216d600c83611a12565b915061217882612137565b602082019050919050565b6000602082019050818103600083015261219c81612160565b9050919050565b7f4e487b7100000000000000000000000000000000000000000000000000000000600052601160045260246000fd5b60006121dd82611ad1565b91507fffffffffffffffffffffffffffffffffffffffffffffffffffffffffffffffff820361220f5761220e6121a3565b5b600182019050919050565b600061222582611ad1565b915061223083611ad1565b9250828201905080821115612248576122476121a3565b5b92915050565b7f436f6d70616e792041206e6f7420726567697374657265640000000000000000600082015250565b6000612284601883611a12565b915061228f8261224e565b602082019050919050565b600060208201905081810360008301526122b381612277565b9050919050565b7f436f6d70616e792042206e6f7420726567697374657265640000000000000000600082015250565b60006122f0601883611a12565b91506122fb826122ba565b602082019050919050565b6000602082019050818103600083015261231f816122e3565b9050919050565b600061233182611ad1565b915061233c83611ad1565b9250828203905081811115612354576123536121a3565b5b92915050565b7f436f6d70616e79206e6f74207265676973746572656400000000000000000000600082015250565b6000612390601683611a12565b915061239b8261235a565b602082019050919050565b600060208201905081810360008301526123bf81612383565b9050919050565b7f5374616b65206d75737420626520706f73697469766500000000000000000000600082015250565b60006123fc601683611a12565b9150612407826123c6565b602082019050919050565b6000602082019050818103600083015261242b816123ef565b9050919050565b60006060820190506124476000830186611b5e565b6124546020830185611b5e565b6124616040830184611adb565b949350505050565b61247281611a86565b811461247d57600080fd5b50565b60008151905061248f81612469565b92915050565b6000602082840312156124ab576124aa6117e3565b5b60006124b984828501612480565b91505092915050565b7f4469737075746520616c7265616479207265736f6c7665640000000000000000600082015250565b60006124f8601883611a12565b9150612503826124c2565b602082019050919050565b60006020820190508181036000830152612527816124eb565b9050919050565b7f546f74616c207374616b65206d7573742062652067726561746572207468616e60008201527f207a65726f000000000000000000000000000000000000000000000000000000602082015250565b600061258a602583611a12565b91506125958261252e565b604082019050919050565b600060208201905081810360008301526125b98161257d565b9050919050565b6000819050919050565b6125db6125d682611ad1565b6125c0565b82525050565b60008160f81b9050919050565b60006125f9826125e1565b9050919050565b61261161260c82611bdb565b6125ee565b82525050565b600061262382866125ca565b60208201915061263382856125ca565b6020820191506126438284612600565b600182019150819050949350505050565b7f4e487b7100000000000000000000000000000000000000000000000000000000600052601260045260246000fd5b600061268e82611ad1565b915061269983611ad1565b9250826126a9576126a8612654565b5b828206905092915050565b60006126bf82611ad1565b91506126ca83611ad1565b9250826126da576126d9612654565b5b828204905092915050565b60006040820190506126fa6000830185611b5e565b6127076020830184611adb565b939250505056fea2646970667358221220f677a638fc3d125162b2cf9223c773383a45657fbc7b4408f4520d5dc23f984264736f6c634300081b0033",
  "linkReferences": {},
  "deployedLinkReferences": {}
}