{
  "_format": "hh-sol-artifact-1",
  "contractName": "ArbitroChain",
  "sourceName": "contracts/ArbitroChain.sol",
  "abi": [
    {
      "inputs": [
        {
          "internalType": "address",
          "name": "_grullToken",
          "type": "address"
        }
      ],
      "stateMutability": "nonpayable",
      "type": "constructor"
    },
    {
      "anonymous": false,
      "inputs": [
        {
          "indexed": true,
          "internalType": "uint256",
          "name": "disputeId",
          "type": "uint256"
        },
        {
          "indexed": true,
          "internalType": "address",
          "name": "companyA",
          "type": "address"
        },
        {
          "indexed": true,
          "internalType": "address",
          "name": "companyB",
          "type": "address"
        },
        {
          "indexed": false,
          "internalType": "string",
          "name": "issueDescription",
          "type": "string"
        },
        {
          "indexed": false,
          "internalType": "string",
          "name": "category",
          "type": "string"
        }
      ],
      "name": "DisputeRaised",
      "type": "event"
    },
    {
      "anonymous": false,
      "inputs": [
        {
          "indexed": true,
          "internalType": "uint256",
          "name": "disputeId",
          "type": "uint256"
        },
        {
          "indexed": false,
          "internalType": "address",
          "name": "winner",
          "type": "address"
        }
      ],
      "name": "DisputeResolved",
      "type": "event"
    },
    {
      "inputs": [
        {
          "internalType": "uint256",
          "name": "",
          "type": "uint256"
        }
      ],
      "name": "allArbitrators",
      "outputs": [
        {
          "internalType": "address",
          "name": "",
          "type": "address"
        }
      ],
      "stateMutability": "view",
      "type": "function"
    },
    {
      "inputs": [
        {
          "internalType": "address",
          "name": "",
          "type": "address"
        }
      ],
      "name": "arbitratorStakes",
      "outputs": [
        {
          "internalType": "uint256",
          "name": "",
          "type": "uint256"
        }
      ],
      "stateMutability": "view",
      "type": "function"
    },
    {
      "inputs": [
        {
          "internalType": "address",
          "name": "",
          "type": "address"
        }
      ],
      "name": "companies",
      "outputs": [
        {
          "internalType": "string",
          "name": "name",
          "type": "string"
        },
        {
          "internalType": "bool",
          "name": "exists",
          "type": "bool"
        }
      ],
      "stateMutability": "view",
      "type": "function"
    },
    {
      "inputs": [
        {
          "internalType": "uint256",
          "name": "_amount",
          "type": "uint256"
        }
      ],
      "name": "depositStake",
      "outputs": [],
      "stateMutability": "nonpayable",
      "type": "function"
    },
    {
      "inputs": [
        {
          "internalType": "uint256",
          "name": "",
          "type": "uint256"
        }
      ],
      "name": "disputes",
      "outputs": [
        {
          "internalType": "address",
          "name": "companyA",
          "type": "address"
        },
        {
          "internalType": "address",
          "name": "companyB",
          "type": "address"
        },
        {
          "internalType": "string",
          "name": "issueDescription",
          "type": "string"
        },
        {
          "internalType": "string",
          "name": "category",
          "type": "string"
        },
        {
          "internalType": "uint256",
          "name": "voteA",
          "type": "uint256"
        },
        {
          "internalType": "uint256",
          "name": "voteB",
          "type": "uint256"
        },
        {
          "internalType": "bool",
          "name": "resolved",
          "type": "bool"
        }
      ],
      "stateMutability": "view",
      "type": "function"
    },
    {
      "inputs": [
        {
          "internalType": "address",
          "name": "_arbitrator",
          "type": "address"
        }
      ],
      "name": "getArbitratorStake",
      "outputs": [
        {
          "internalType": "uint256",
          "name": "",
          "type": "uint256"
        }
      ],
      "stateMutability": "view",
      "type": "function"
    },
    {
      "inputs": [
        {
          "internalType": "address",
          "name": "_companyAddress",
          "type": "address"
        }
      ],
      "name": "getCompanyName",
      "outputs": [
        {
          "internalType": "string",
          "name": "",
          "type": "string"
        }
      ],
      "stateMutability": "view",
      "type": "function"
    },
    {
      "inputs": [],
      "name": "grullToken",
      "outputs": [
        {
          "internalType": "contract IERC20",
          "name": "",
          "type": "address"
        }
      ],
      "stateMutability": "view",
      "type": "function"
    },
    {
      "inputs": [
        {
          "internalType": "address",
          "name": "_arbitrator",
          "type": "address"
        }
      ],
      "name": "isArbitrator",
      "outputs": [
        {
          "internalType": "bool",
          "name": "",
          "type": "bool"
        }
      ],
      "stateMutability": "view",
      "type": "function"
    },
    {
      "inputs": [
        {
          "internalType": "address",
          "name": "_companyB",
          "type": "address"
        },
        {
          "internalType": "string",
          "name": "_issueDescription",
          "type": "string"
        },
        {
          "internalType": "string",
          "name": "_category",
          "type": "string"
        }
      ],
      "name": "raiseDispute",
      "outputs": [],
      "stateMutability": "nonpayable",
      "type": "function"
    },
    {
      "inputs": [
        {
          "internalType": "string",
          "name": "_name",
          "type": "string"
        }
      ],
      "name": "registerCompany",
      "outputs": [],
      "stateMutability": "nonpayable",
      "type": "function"
    },
    {
      "inputs": [
        {
          "internalType": "uint256",
          "name": "_disputeId",
          "type": "uint256"
        },
        {
          "internalType": "uint8",
          "name": "_vote",
          "type": "uint8"
        }
      ],
      "name": "vote",
      "outputs": [],
      "stateMutability": "nonpayable",
      "type": "function"
    }
  ],
  "bytecode": "0x608060405234801561001057600080fd5b50604051612b39380380612b39833981810160405281019061003291906100db565b806000806101000a81548173ffffffffffffffffffffffffffffffffffffffff021916908373ffffffffffffffffffffffffffffffffffffffff16021790555050610108565b600080fd5b600073ffffffffffffffffffffffffffffffffffffffff82169050919050565b60006100a88261007d565b9050919050565b6100b88161009d565b81146100c357600080fd5b50565b6000815190506100d5816100af565b92915050565b6000602082840312156100f1576100f0610078565b5b60006100ff848285016100c6565b91505092915050565b612a22806101176000396000f3fe608060405234801561001057600080fd5b50600436106100b35760003560e01c8063943e821611610071578063943e8216146101b75780639f6bd2a9146101d3578063a4ef703114610203578063ad4eac3614610233578063c9cf5ddf14610263578063cb82cc8f14610281576100b3565b8062544194146100b8578063355e6ce8146100d4578063461605c6146101055780634a27d84514610135578063564a565d1461015157806373fc5db814610187575b600080fd5b6100d260048036038101906100cd9190611b0a565b61029d565b005b6100ee60048036038101906100e99190611bb1565b6103c0565b6040516100fc929190611c78565b60405180910390f35b61011f600480360381019061011a9190611bb1565b610479565b60405161012c9190611cc1565b60405180910390f35b61014f600480360381019061014a9190611cdc565b610491565b005b61016b60048036038101906101669190611d93565b610722565b60405161017e9796959493929190611dcf565b60405180910390f35b6101a1600480360381019061019c9190611d93565b6108d1565b6040516101ae9190611e4c565b60405180910390f35b6101d160048036038101906101cc9190611ea0565b610910565b005b6101ed60048036038101906101e89190611bb1565b610be4565b6040516101fa9190611ee0565b60405180910390f35b61021d60048036038101906102189190611bb1565b610c2f565b60405161022a9190611efb565b60405180910390f35b61024d60048036038101906102489190611bb1565b610d92565b60405161025a9190611cc1565b60405180910390f35b61026b610ddb565b6040516102789190611f7c565b60405180910390f35b61029b60048036038101906102969190611d93565b610dff565b005b600160003373ffffffffffffffffffffffffffffffffffffffff1673ffffffffffffffffffffffffffffffffffffffff16815260200190815260200160002060010160009054906101000a900460ff161561032d576040517f08c379a000000000000000000000000000000000000000000000000000000000815260040161032490611fe3565b60405180910390fd5b604051806040016040528082815260200160011515815250600160003373ffffffffffffffffffffffffffffffffffffffff1673ffffffffffffffffffffffffffffffffffffffff16815260200190815260200160002060008201518160000190816103999190612205565b5060208201518160010160006101000a81548160ff02191690831515021790555090505050565b60016020528060005260406000206000915090508060000180546103e390612032565b80601f016020809104026020016040519081016040528092919081815260200182805461040f90612032565b801561045c5780601f106104315761010080835404028352916020019161045c565b820191906000526020600020905b81548152906001019060200180831161043f57829003601f168201915b5050505050908060010160009054906101000a900460ff16905082565b60026020528060005260406000206000915090505481565b600160003373ffffffffffffffffffffffffffffffffffffffff1673ffffffffffffffffffffffffffffffffffffffff16815260200190815260200160002060010160009054906101000a900460ff16610520576040517f08c379a000000000000000000000000000000000000000000000000000000000815260040161051790612323565b60405180910390fd5b600160008473ffffffffffffffffffffffffffffffffffffffff1673ffffffffffffffffffffffffffffffffffffffff16815260200190815260200160002060010160009054906101000a900460ff166105af576040517f08c379a00000000000000000000000000000000000000000000000000000000081526004016105a69061238f565b60405180910390fd5b60006105b9610fe7565b9050600060046001816001815401808255809150500390600052602060002090600a02019050338160000160006101000a81548173ffffffffffffffffffffffffffffffffffffffff021916908373ffffffffffffffffffffffffffffffffffffffff160217905550848160010160006101000a81548173ffffffffffffffffffffffffffffffffffffffff021916908373ffffffffffffffffffffffffffffffffffffffff160217905550838160030190816106769190612205565b50828160040190816106889190612205565b50818160020190805190602001906106a1929190611909565b508473ffffffffffffffffffffffffffffffffffffffff163373ffffffffffffffffffffffffffffffffffffffff1660016004805490506106e291906123de565b7f58c25e312e9a3fdf98957a7d14d1ea43ae89694ad841a257b0e7e91174a86e438787604051610713929190612412565b60405180910390a45050505050565b6004818154811061073257600080fd5b90600052602060002090600a02016000915090508060000160009054906101000a900473ffffffffffffffffffffffffffffffffffffffff16908060010160009054906101000a900473ffffffffffffffffffffffffffffffffffffffff16908060030180546107a190612032565b80601f01602080910402602001604051908101604052809291908181526020018280546107cd90612032565b801561081a5780601f106107ef5761010080835404028352916020019161081a565b820191906000526020600020905b8154815290600101906020018083116107fd57829003601f168201915b50505050509080600401805461082f90612032565b80601f016020809104026020016040519081016040528092919081815260200182805461085b90612032565b80156108a85780601f1061087d576101008083540402835291602001916108a8565b820191906000526020600020905b81548152906001019060200180831161088b57829003601f168201915b5050505050908060070154908060080154908060090160009054906101000a900460ff16905087565b600381815481106108e157600080fd5b906000526020600020016000915054906101000a900473ffffffffffffffffffffffffffffffffffffffff1681565b60006004838154811061092657610925612449565b5b90600052602060002090600a020190508060050160003373ffffffffffffffffffffffffffffffffffffffff1673ffffffffffffffffffffffffffffffffffffffff16815260200190815260200160002060009054906101000a900460ff16156109c5576040517f08c379a00000000000000000000000000000000000000000000000000000000081526004016109bc906124c4565b60405180910390fd5b6109cf833361136e565b610a0e576040517f08c379a0000000000000000000000000000000000000000000000000000000008152600401610a0590612530565b60405180910390fd5b60018260ff161480610a23575060028260ff16145b610a62576040517f08c379a0000000000000000000000000000000000000000000000000000000008152600401610a599061259c565b60405180910390fd5b60018160050160003373ffffffffffffffffffffffffffffffffffffffff1673ffffffffffffffffffffffffffffffffffffffff16815260200190815260200160002060006101000a81548160ff02191690831515021790555060018260ff1603610b4157806007016000815480929190610adc906125bc565b919050555060018160060160003373ffffffffffffffffffffffffffffffffffffffff1673ffffffffffffffffffffffffffffffffffffffff16815260200190815260200160002060006101000a81548160ff021916908360ff160217905550610bb7565b806008016000815480929190610b56906125bc565b919050555060028160060160003373ffffffffffffffffffffffffffffffffffffffff1673ffffffffffffffffffffffffffffffffffffffff16815260200190815260200160002060006101000a81548160ff021916908360ff1602179055505b600860ff1681600801548260070154610bd09190612604565b03610bdf57610bde8361143c565b5b505050565b600080600260008473ffffffffffffffffffffffffffffffffffffffff1673ffffffffffffffffffffffffffffffffffffffff16815260200190815260200160002054119050919050565b6060600160008373ffffffffffffffffffffffffffffffffffffffff1673ffffffffffffffffffffffffffffffffffffffff16815260200190815260200160002060010160009054906101000a900460ff16610cc0576040517f08c379a0000000000000000000000000000000000000000000000000000000008152600401610cb790612684565b60405180910390fd5b600160008373ffffffffffffffffffffffffffffffffffffffff1673ffffffffffffffffffffffffffffffffffffffff1681526020019081526020016000206000018054610d0d90612032565b80601f0160208091040260200160405190810160405280929190818152602001828054610d3990612032565b8015610d865780601f10610d5b57610100808354040283529160200191610d86565b820191906000526020600020905b815481529060010190602001808311610d6957829003601f168201915b50505050509050919050565b6000600260008373ffffffffffffffffffffffffffffffffffffffff1673ffffffffffffffffffffffffffffffffffffffff168152602001908152602001600020549050919050565b60008054906101000a900473ffffffffffffffffffffffffffffffffffffffff1681565b60008111610e42576040517f08c379a0000000000000000000000000000000000000000000000000000000008152600401610e39906126f0565b60405180910390fd5b60008054906101000a900473ffffffffffffffffffffffffffffffffffffffff1673ffffffffffffffffffffffffffffffffffffffff166323b872dd3330846040518463ffffffff1660e01b8152600401610e9f93929190612710565b6020604051808303816000875af1158015610ebe573d6000803e3d6000fd5b505050506040513d601f19601f82011682018060405250810190610ee29190612773565b506000600260003373ffffffffffffffffffffffffffffffffffffffff1673ffffffffffffffffffffffffffffffffffffffff1681526020019081526020016000205403610f8e576003339080600181540180825580915050600190039060005260206000200160009091909190916101000a81548173ffffffffffffffffffffffffffffffffffffffff021916908373ffffffffffffffffffffffffffffffffffffffff1602179055505b80600260003373ffffffffffffffffffffffffffffffffffffffff1673ffffffffffffffffffffffffffffffffffffffff1681526020019081526020016000206000828254610fdd9190612604565b9250508190555050565b60606000600860ff1667ffffffffffffffff811115611009576110086119df565b5b6040519080825280602002602001820160405280156110375781602001602082028036833780820191505090505b5090506000805b6003805490508110156110e357600260006003838154811061106357611062612449565b5b9060005260206000200160009054906101000a900473ffffffffffffffffffffffffffffffffffffffff1673ffffffffffffffffffffffffffffffffffffffff1673ffffffffffffffffffffffffffffffffffffffff16815260200190815260200160002054826110d49190612604565b9150808060010191505061103e565b5060008111611127576040517f08c379a000000000000000000000000000000000000000000000000000000000815260040161111e90612812565b60405180910390fd5b600060038054905067ffffffffffffffff811115611148576111476119df565b5b6040519080825280602002602001820160405280156111765781602001602082028036833780820191505090505b50905060005b600860ff168160ff161015611364576000834244846040516020016111a393929190612889565b6040516020818303038152906040528051906020012060001c6111c691906128f5565b90506000805b600380549050811015611354578481815181106111ec576111eb612449565b5b60200260200101516113475760026000600383815481106112105761120f612449565b5b9060005260206000200160009054906101000a900473ffffffffffffffffffffffffffffffffffffffff1673ffffffffffffffffffffffffffffffffffffffff1673ffffffffffffffffffffffffffffffffffffffff16815260200190815260200160002054826112819190612604565b915081831015611346576003818154811061129f5761129e612449565b5b9060005260206000200160009054906101000a900473ffffffffffffffffffffffffffffffffffffffff16878560ff16815181106112e0576112df612449565b5b602002602001019073ffffffffffffffffffffffffffffffffffffffff16908173ffffffffffffffffffffffffffffffffffffffff1681525050600185828151811061132f5761132e612449565b5b602002602001019015159081151581525050611354565b5b80806001019150506111cc565b505050808060010191505061117c565b5082935050505090565b6000806004848154811061138557611384612449565b5b90600052602060002090600a0201905060005b600860ff1681101561142f578373ffffffffffffffffffffffffffffffffffffffff168260020182815481106113d1576113d0612449565b5b9060005260206000200160009054906101000a900473ffffffffffffffffffffffffffffffffffffffff1673ffffffffffffffffffffffffffffffffffffffff160361142257600192505050611436565b8080600101915050611398565b5060009150505b92915050565b60006004828154811061145257611451612449565b5b90600052602060002090600a020190508060090160009054906101000a900460ff16156114b4576040517f08c379a00000000000000000000000000000000000000000000000000000000081526004016114ab90612972565b60405180910390fd5b600081600801548260070154116114ef578160010160009054906101000a900473ffffffffffffffffffffffffffffffffffffffff16611515565b8160000160009054906101000a900473ffffffffffffffffffffffffffffffffffffffff165b905060008260080154836007015411611532578260070154611538565b82600801545b90506115458483836115a0565b60018360090160006101000a81548160ff021916908315150217905550837ff77ceb5e091d2da041bc760667f9d5fe7a756949eaf29250ad0e60ca6f4c27d9836040516115929190611e4c565b60405180910390a250505050565b6000600484815481106115b6576115b5612449565b5b90600052602060002090600a020190506000805b600860ff168110156117325760008360020182815481106115ee576115ed612449565b5b9060005260206000200160009054906101000a900473ffffffffffffffffffffffffffffffffffffffff1690508360000160009054906101000a900473ffffffffffffffffffffffffffffffffffffffff1673ffffffffffffffffffffffffffffffffffffffff168673ffffffffffffffffffffffffffffffffffffffff161461167957600161167c565b60025b60ff168460060160008373ffffffffffffffffffffffffffffffffffffffff1673ffffffffffffffffffffffffffffffffffffffff16815260200190815260200160002060009054906101000a900460ff1660ff160361172457600260008273ffffffffffffffffffffffffffffffffffffffff1673ffffffffffffffffffffffffffffffffffffffff16815260200190815260200160002054836117219190612604565b92505b5080806001019150506115ca565b5060005b600860ff1681101561190157600083600201828154811061175a57611759612449565b5b9060005260206000200160009054906101000a900473ffffffffffffffffffffffffffffffffffffffff1690508360000160009054906101000a900473ffffffffffffffffffffffffffffffffffffffff1673ffffffffffffffffffffffffffffffffffffffff168673ffffffffffffffffffffffffffffffffffffffff16146117e55760026117e8565b60015b60ff168460060160008373ffffffffffffffffffffffffffffffffffffffff1673ffffffffffffffffffffffffffffffffffffffff16815260200190815260200160002060009054906101000a900460ff1660ff16036118f357600085846118509190612992565b905060008054906101000a900473ffffffffffffffffffffffffffffffffffffffff1673ffffffffffffffffffffffffffffffffffffffff1663a9059cbb83836040518363ffffffff1660e01b81526004016118ad9291906129c3565b6020604051808303816000875af11580156118cc573d6000803e3d6000fd5b505050506040513d601f19601f820116820180604052508101906118f09190612773565b50505b508080600101915050611736565b505050505050565b828054828255906000526020600020908101928215611982579160200282015b828111156119815782518260006101000a81548173ffffffffffffffffffffffffffffffffffffffff021916908373ffffffffffffffffffffffffffffffffffffffff16021790555091602001919060010190611929565b5b50905061198f9190611993565b5090565b5b808211156119ac576000816000905550600101611994565b5090565b6000604051905090565b600080fd5b600080fd5b600080fd5b600080fd5b6000601f19601f8301169050919050565b7f4e487b7100000000000000000000000000000000000000000000000000000000600052604160045260246000fd5b611a17826119ce565b810181811067ffffffffffffffff82111715611a3657611a356119df565b5b80604052505050565b6000611a496119b0565b9050611a558282611a0e565b919050565b600067ffffffffffffffff821115611a7557611a746119df565b5b611a7e826119ce565b9050602081019050919050565b82818337600083830152505050565b6000611aad611aa884611a5a565b611a3f565b905082815260208101848484011115611ac957611ac86119c9565b5b611ad4848285611a8b565b509392505050565b600082601f830112611af157611af06119c4565b5b8135611b01848260208601611a9a565b91505092915050565b600060208284031215611b2057611b1f6119ba565b5b600082013567ffffffffffffffff811115611b3e57611b3d6119bf565b5b611b4a84828501611adc565b91505092915050565b600073ffffffffffffffffffffffffffffffffffffffff82169050919050565b6000611b7e82611b53565b9050919050565b611b8e81611b73565b8114611b9957600080fd5b50565b600081359050611bab81611b85565b92915050565b600060208284031215611bc757611bc66119ba565b5b6000611bd584828501611b9c565b91505092915050565b600081519050919050565b600082825260208201905092915050565b60005b83811015611c18578082015181840152602081019050611bfd565b60008484015250505050565b6000611c2f82611bde565b611c398185611be9565b9350611c49818560208601611bfa565b611c52816119ce565b840191505092915050565b60008115159050919050565b611c7281611c5d565b82525050565b60006040820190508181036000830152611c928185611c24565b9050611ca16020830184611c69565b9392505050565b6000819050919050565b611cbb81611ca8565b82525050565b6000602082019050611cd66000830184611cb2565b92915050565b600080600060608486031215611cf557611cf46119ba565b5b6000611d0386828701611b9c565b935050602084013567ffffffffffffffff811115611d2457611d236119bf565b5b611d3086828701611adc565b925050604084013567ffffffffffffffff811115611d5157611d506119bf565b5b611d5d86828701611adc565b9150509250925092565b611d7081611ca8565b8114611d7b57600080fd5b50565b600081359050611d8d81611d67565b92915050565b600060208284031215611da957611da86119ba565b5b6000611db784828501611d7e565b91505092915050565b611dc981611b73565b82525050565b600060e082019050611de4600083018a611dc0565b611df16020830189611dc0565b8181036040830152611e038188611c24565b90508181036060830152611e178187611c24565b9050611e266080830186611cb2565b611e3360a0830185611cb2565b611e4060c0830184611c69565b98975050505050505050565b6000602082019050611e616000830184611dc0565b92915050565b600060ff82169050919050565b611e7d81611e67565b8114611e8857600080fd5b50565b600081359050611e9a81611e74565b92915050565b60008060408385031215611eb757611eb66119ba565b5b6000611ec585828601611d7e565b9250506020611ed685828601611e8b565b9150509250929050565b6000602082019050611ef56000830184611c69565b92915050565b60006020820190508181036000830152611f158184611c24565b905092915050565b6000819050919050565b6000611f42611f3d611f3884611b53565b611f1d565b611b53565b9050919050565b6000611f5482611f27565b9050919050565b6000611f6682611f49565b9050919050565b611f7681611f5b565b82525050565b6000602082019050611f916000830184611f6d565b92915050565b7f436f6d70616e7920616c72656164792072656769737465726564000000000000600082015250565b6000611fcd601a83611be9565b9150611fd882611f97565b602082019050919050565b60006020820190508181036000830152611ffc81611fc0565b9050919050565b7f4e487b7100000000000000000000000000000000000000000000000000000000600052602260045260246000fd5b6000600282049050600182168061204a57607f821691505b60208210810361205d5761205c612003565b5b50919050565b60008190508160005260206000209050919050565b60006020601f8301049050919050565b600082821b905092915050565b6000600883026120c57fffffffffffffffffffffffffffffffffffffffffffffffffffffffffffffffff82612088565b6120cf8683612088565b95508019841693508086168417925050509392505050565b60006121026120fd6120f884611ca8565b611f1d565b611ca8565b9050919050565b6000819050919050565b61211c836120e7565b61213061212882612109565b848454612095565b825550505050565b600090565b612145612138565b612150818484612113565b505050565b5b818110156121745761216960008261213d565b600181019050612156565b5050565b601f8211156121b95761218a81612063565b61219384612078565b810160208510156121a2578190505b6121b66121ae85612078565b830182612155565b50505b505050565b600082821c905092915050565b60006121dc600019846008026121be565b1980831691505092915050565b60006121f583836121cb565b9150826002028217905092915050565b61220e82611bde565b67ffffffffffffffff811115612227576122266119df565b5b6122318254612032565b61223c828285612178565b600060209050601f83116001811461226f576000841561225d578287015190505b61226785826121e9565b8655506122cf565b601f19841661227d86612063565b60005b828110156122a557848901518255600182019150602085019450602081019050612280565b868310156122c257848901516122be601f8916826121cb565b8355505b6001600288020188555050505b505050505050565b7f436f6d70616e792041206e6f7420726567697374657265640000000000000000600082015250565b600061230d601883611be9565b9150612318826122d7565b602082019050919050565b6000602082019050818103600083015261233c81612300565b9050919050565b7f436f6d70616e792042206e6f7420726567697374657265640000000000000000600082015250565b6000612379601883611be9565b915061238482612343565b602082019050919050565b600060208201905081810360008301526123a88161236c565b9050919050565b7f4e487b7100000000000000000000000000000000000000000000000000000000600052601160045260246000fd5b60006123e982611ca8565b91506123f483611ca8565b925082820390508181111561240c5761240b6123af565b5b92915050565b6000604082019050818103600083015261242c8185611c24565b905081810360208301526124408184611c24565b90509392505050565b7f4e487b7100000000000000000000000000000000000000000000000000000000600052603260045260246000fd5b7f416c726561647920766f74656400000000000000000000000000000000000000600082015250565b60006124ae600d83611be9565b91506124b982612478565b602082019050919050565b600060208201905081810360008301526124dd816124a1565b9050919050565b7f4e6f7420612073656c65637465642061726269747261746f7200000000000000600082015250565b600061251a601983611be9565b9150612525826124e4565b602082019050919050565b600060208201905081810360008301526125498161250d565b9050919050565b7f496e76616c696420766f74650000000000000000000000000000000000000000600082015250565b6000612586600c83611be9565b915061259182612550565b602082019050919050565b600060208201905081810360008301526125b581612579565b9050919050565b60006125c782611ca8565b91507fffffffffffffffffffffffffffffffffffffffffffffffffffffffffffffffff82036125f9576125f86123af565b5b600182019050919050565b600061260f82611ca8565b915061261a83611ca8565b9250828201905080821115612632576126316123af565b5b92915050565b7f436f6d70616e79206e6f74207265676973746572656400000000000000000000600082015250565b600061266e601683611be9565b915061267982612638565b602082019050919050565b6000602082019050818103600083015261269d81612661565b9050919050565b7f5374616b65206d75737420626520706f73697469766500000000000000000000600082015250565b60006126da601683611be9565b91506126e5826126a4565b602082019050919050565b60006020820190508181036000830152612709816126cd565b9050919050565b60006060820190506127256000830186611dc0565b6127326020830185611dc0565b61273f6040830184611cb2565b949350505050565b61275081611c5d565b811461275b57600080fd5b50565b60008151905061276d81612747565b92915050565b600060208284031215612789576127886119ba565b5b60006127978482850161275e565b91505092915050565b7f546f74616c207374616b65206d7573742062652067726561746572207468616e60008201527f207a65726f000000000000000000000000000000000000000000000000000000602082015250565b60006127fc602583611be9565b9150612807826127a0565b604082019050919050565b6000602082019050818103600083015261282b816127ef565b9050919050565b6000819050919050565b61284d61284882611ca8565b612832565b82525050565b60008160f81b9050919050565b600061286b82612853565b9050919050565b61288361287e82611e67565b612860565b82525050565b6000612895828661283c565b6020820191506128a5828561283c565b6020820191506128b58284612872565b600182019150819050949350505050565b7f4e487b7100000000000000000000000000000000000000000000000000000000600052601260045260246000fd5b600061290082611ca8565b915061290b83611ca8565b92508261291b5761291a6128c6565b5b828206905092915050565b7f4469737075746520616c7265616479207265736f6c7665640000000000000000600082015250565b600061295c601883611be9565b915061296782612926565b602082019050919050565b6000602082019050818103600083015261298b8161294f565b9050919050565b600061299d82611ca8565b91506129a883611ca8565b9250826129b8576129b76128c6565b5b828204905092915050565b60006040820190506129d86000830185611dc0565b6129e56020830184611cb2565b939250505056fea26469706673582212203222dfb0332f992e4dcdb2cebf9f3469e73c001540759be0e38b5eaed8cda01064736f6c634300081b0033",
  "linkReferences": {},
  "deployedLinkReferences": {}
}