{
  "_format": "hh-sol-artifact-1",
  "contractName": "ArbitroChain",
  "sourceName": "contracts/ArbitroChain.sol",
  "abi": [
    {
      "inputs": [
        {
          "internalType": "address",
          "name": "_grullToken",
          "type": "address"
        }
      ],
      "stateMutability": "nonpayable",
      "type": "constructor"
    },
    {
      "anonymous": false,
      "inputs": [
        {
          "indexed": true,
          "internalType": "uint256",
          "name": "disputeId",
          "type": "uint256"
        },
        {
          "indexed": false,
          "internalType": "string",
          "name": "companyAName",
          "type": "string"
        },
        {
          "indexed": true,
          "internalType": "address",
          "name": "companyA",
          "type": "address"
        },
        {
          "indexed": false,
          "internalType": "string",
          "name": "companyBName",
          "type": "string"
        },
        {
          "indexed": true,
          "internalType": "address",
          "name": "companyB",
          "type": "address"
        },
        {
          "indexed": false,
          "internalType": "string",
          "name": "issueDescription",
          "type": "string"
        },
        {
          "indexed": false,
          "internalType": "string",
          "name": "category",
          "type": "string"
        }
      ],
      "name": "DisputeRaised",
      "type": "event"
    },
    {
      "anonymous": false,
      "inputs": [
        {
          "indexed": true,
          "internalType": "uint256",
          "name": "disputeId",
          "type": "uint256"
        },
        {
          "indexed": false,
          "internalType": "address",
          "name": "winner",
          "type": "address"
        }
      ],
      "name": "DisputeResolved",
      "type": "event"
    },
    {
      "inputs": [
        {
          "internalType": "uint256",
          "name": "",
          "type": "uint256"
        }
      ],
      "name": "allArbitrators",
      "outputs": [
        {
          "internalType": "address",
          "name": "",
          "type": "address"
        }
      ],
      "stateMutability": "view",
      "type": "function"
    },
    {
      "inputs": [
        {
          "internalType": "address",
          "name": "",
          "type": "address"
        }
      ],
      "name": "arbitratorStakes",
      "outputs": [
        {
          "internalType": "uint256",
          "name": "",
          "type": "uint256"
        }
      ],
      "stateMutability": "view",
      "type": "function"
    },
    {
      "inputs": [
        {
          "internalType": "address",
          "name": "",
          "type": "address"
        }
      ],
      "name": "companies",
      "outputs": [
        {
          "internalType": "string",
          "name": "name",
          "type": "string"
        }
      ],
      "stateMutability": "view",
      "type": "function"
    },
    {
      "inputs": [
        {
          "internalType": "uint256",
          "name": "_amount",
          "type": "uint256"
        }
      ],
      "name": "depositStake",
      "outputs": [],
      "stateMutability": "nonpayable",
      "type": "function"
    },
    {
      "inputs": [
        {
          "internalType": "uint256",
          "name": "",
          "type": "uint256"
        }
      ],
      "name": "disputes",
      "outputs": [
        {
          "internalType": "string",
          "name": "companyAName",
          "type": "string"
        },
        {
          "internalType": "address",
          "name": "companyAAddress",
          "type": "address"
        },
        {
          "internalType": "string",
          "name": "companyBName",
          "type": "string"
        },
        {
          "internalType": "address",
          "name": "companyBAddress",
          "type": "address"
        },
        {
          "internalType": "string",
          "name": "issueDescription",
          "type": "string"
        },
        {
          "internalType": "string",
          "name": "category",
          "type": "string"
        },
        {
          "internalType": "uint256",
          "name": "voteA",
          "type": "uint256"
        },
        {
          "internalType": "uint256",
          "name": "voteB",
          "type": "uint256"
        },
        {
          "internalType": "bool",
          "name": "resolved",
          "type": "bool"
        }
      ],
      "stateMutability": "view",
      "type": "function"
    },
    {
      "inputs": [],
      "name": "getAllDisputes",
      "outputs": [
        {
          "components": [
            {
              "internalType": "uint256",
              "name": "id",
              "type": "uint256"
            },
            {
              "internalType": "string",
              "name": "companyAName",
              "type": "string"
            },
            {
              "internalType": "string",
              "name": "companyBName",
              "type": "string"
            },
            {
              "internalType": "string",
              "name": "issueDescription",
              "type": "string"
            },
            {
              "internalType": "string",
              "name": "category",
              "type": "string"
            },
            {
              "internalType": "bool",
              "name": "resolved",
              "type": "bool"
            }
          ],
          "internalType": "struct ArbitroChain.DisputeInfo[]",
          "name": "",
          "type": "tuple[]"
        }
      ],
      "stateMutability": "view",
      "type": "function"
    },
    {
      "inputs": [
        {
          "internalType": "address",
          "name": "_arbitrator",
          "type": "address"
        }
      ],
      "name": "getArbitratorStake",
      "outputs": [
        {
          "internalType": "uint256",
          "name": "",
          "type": "uint256"
        }
      ],
      "stateMutability": "view",
      "type": "function"
    },
    {
      "inputs": [],
      "name": "grullToken",
      "outputs": [
        {
          "internalType": "contract IERC20",
          "name": "",
          "type": "address"
        }
      ],
      "stateMutability": "view",
      "type": "function"
    },
    {
      "inputs": [
        {
          "internalType": "address",
          "name": "_arbitrator",
          "type": "address"
        }
      ],
      "name": "isArbitrator",
      "outputs": [
        {
          "internalType": "bool",
          "name": "",
          "type": "bool"
        }
      ],
      "stateMutability": "view",
      "type": "function"
    },
    {
      "inputs": [
        {
          "internalType": "string",
          "name": "_companyAName",
          "type": "string"
        },
        {
          "internalType": "string",
          "name": "_companyBName",
          "type": "string"
        },
        {
          "internalType": "string",
          "name": "_issueDescription",
          "type": "string"
        },
        {
          "internalType": "string",
          "name": "_category",
          "type": "string"
        }
      ],
      "name": "raiseDispute",
      "outputs": [],
      "stateMutability": "nonpayable",
      "type": "function"
    },
    {
      "inputs": [
        {
          "internalType": "uint256",
          "name": "_disputeId",
          "type": "uint256"
        },
        {
          "internalType": "uint8",
          "name": "_vote",
          "type": "uint8"
        }
      ],
      "name": "vote",
      "outputs": [],
      "stateMutability": "nonpayable",
      "type": "function"
    }
  ],
  "bytecode": "0x608060405234801561001057600080fd5b50604051612d1e380380612d1e833981810160405281019061003291906100db565b806000806101000a81548173ffffffffffffffffffffffffffffffffffffffff021916908373ffffffffffffffffffffffffffffffffffffffff16021790555050610108565b600080fd5b600073ffffffffffffffffffffffffffffffffffffffff82169050919050565b60006100a88261007d565b9050919050565b6100b88161009d565b81146100c357600080fd5b50565b6000815190506100d5816100af565b92915050565b6000602082840312156100f1576100f0610078565b5b60006100ff848285016100c6565b91505092915050565b612c07806101176000396000f3fe608060405234801561001057600080fd5b50600436106100a95760003560e01c8063943e821611610071578063943e8216146101945780639f6bd2a9146101b0578063ad4eac36146101e0578063b61884b714610210578063c9cf5ddf1461022c578063cb82cc8f1461024a576100a9565b80631dd9997f146100ae578063355e6ce8146100cc578063461605c6146100fc578063564a565d1461012c57806373fc5db814610164575b600080fd5b6100b6610266565b6040516100c39190611cea565b60405180910390f35b6100e660048036038101906100e19190611d7e565b61059f565b6040516100f39190611df5565b60405180910390f35b61011660048036038101906101119190611d7e565b610645565b6040516101239190611e26565b60405180910390f35b61014660048036038101906101419190611e6d565b61065d565b60405161015b99989796959493929190611eb8565b60405180910390f35b61017e60048036038101906101799190611e6d565b610928565b60405161018b9190611f61565b60405180910390f35b6101ae60048036038101906101a99190611fb5565b610967565b005b6101ca60048036038101906101c59190611d7e565b610c3b565b6040516101d79190611ff5565b60405180910390f35b6101fa60048036038101906101f59190611d7e565b610c86565b6040516102079190611e26565b60405180910390f35b61022a60048036038101906102259190612145565b610ccf565b005b610234610eb9565b604051610241919061227b565b60405180910390f35b610264600480360381019061025f9190611e6d565b610edd565b005b6060600060048054905067ffffffffffffffff8111156102895761028861201a565b5b6040519080825280602002602001820160405280156102c257816020015b6102af6119e7565b8152602001906001900390816102a75790505b50905060005b600480549050811015610597576000600482815481106102eb576102ea612296565b5b90600052602060002090600c020190506040518060c0016040528083815260200182600001805461031b906122f4565b80601f0160208091040260200160405190810160405280929190818152602001828054610347906122f4565b80156103945780601f1061036957610100808354040283529160200191610394565b820191906000526020600020905b81548152906001019060200180831161037757829003601f168201915b505050505081526020018260020180546103ad906122f4565b80601f01602080910402602001604051908101604052809291908181526020018280546103d9906122f4565b80156104265780601f106103fb57610100808354040283529160200191610426565b820191906000526020600020905b81548152906001019060200180831161040957829003601f168201915b5050505050815260200182600401805461043f906122f4565b80601f016020809104026020016040519081016040528092919081815260200182805461046b906122f4565b80156104b85780601f1061048d576101008083540402835291602001916104b8565b820191906000526020600020905b81548152906001019060200180831161049b57829003601f168201915b505050505081526020018260050180546104d1906122f4565b80601f01602080910402602001604051908101604052809291908181526020018280546104fd906122f4565b801561054a5780601f1061051f5761010080835404028352916020019161054a565b820191906000526020600020905b81548152906001019060200180831161052d57829003601f168201915b5050505050815260200182600b0160009054906101000a900460ff16151581525083838151811061057e5761057d612296565b5b60200260200101819052505080806001019150506102c8565b508091505090565b60016020528060005260406000206000915090508060000180546105c2906122f4565b80601f01602080910402602001604051908101604052809291908181526020018280546105ee906122f4565b801561063b5780601f106106105761010080835404028352916020019161063b565b820191906000526020600020905b81548152906001019060200180831161061e57829003601f168201915b5050505050905081565b60026020528060005260406000206000915090505481565b6004818154811061066d57600080fd5b90600052602060002090600c0201600091509050806000018054610690906122f4565b80601f01602080910402602001604051908101604052809291908181526020018280546106bc906122f4565b80156107095780601f106106de57610100808354040283529160200191610709565b820191906000526020600020905b8154815290600101906020018083116106ec57829003601f168201915b5050505050908060010160009054906101000a900473ffffffffffffffffffffffffffffffffffffffff1690806002018054610744906122f4565b80601f0160208091040260200160405190810160405280929190818152602001828054610770906122f4565b80156107bd5780601f10610792576101008083540402835291602001916107bd565b820191906000526020600020905b8154815290600101906020018083116107a057829003601f168201915b5050505050908060030160009054906101000a900473ffffffffffffffffffffffffffffffffffffffff16908060040180546107f8906122f4565b80601f0160208091040260200160405190810160405280929190818152602001828054610824906122f4565b80156108715780601f1061084657610100808354040283529160200191610871565b820191906000526020600020905b81548152906001019060200180831161085457829003601f168201915b505050505090806005018054610886906122f4565b80601f01602080910402602001604051908101604052809291908181526020018280546108b2906122f4565b80156108ff5780601f106108d4576101008083540402835291602001916108ff565b820191906000526020600020905b8154815290600101906020018083116108e257829003601f168201915b50505050509080600901549080600a01549080600b0160009054906101000a900460ff16905089565b6003818154811061093857600080fd5b906000526020600020016000915054906101000a900473ffffffffffffffffffffffffffffffffffffffff1681565b60006004838154811061097d5761097c612296565b5b90600052602060002090600c020190508060070160003373ffffffffffffffffffffffffffffffffffffffff1673ffffffffffffffffffffffffffffffffffffffff16815260200190815260200160002060009054906101000a900460ff1615610a1c576040517f08c379a0000000000000000000000000000000000000000000000000000000008152600401610a1390612371565b60405180910390fd5b610a2683336110c5565b610a65576040517f08c379a0000000000000000000000000000000000000000000000000000000008152600401610a5c906123dd565b60405180910390fd5b60018260ff161480610a7a575060028260ff16145b610ab9576040517f08c379a0000000000000000000000000000000000000000000000000000000008152600401610ab090612449565b60405180910390fd5b60018160070160003373ffffffffffffffffffffffffffffffffffffffff1673ffffffffffffffffffffffffffffffffffffffff16815260200190815260200160002060006101000a81548160ff02191690831515021790555060018260ff1603610b9857806009016000815480929190610b3390612498565b919050555060018160080160003373ffffffffffffffffffffffffffffffffffffffff1673ffffffffffffffffffffffffffffffffffffffff16815260200190815260200160002060006101000a81548160ff021916908360ff160217905550610c0e565b80600a016000815480929190610bad90612498565b919050555060028160080160003373ffffffffffffffffffffffffffffffffffffffff1673ffffffffffffffffffffffffffffffffffffffff16815260200190815260200160002060006101000a81548160ff021916908360ff1602179055505b600860ff1681600a01548260090154610c2791906124e0565b03610c3657610c3583611193565b5b505050565b600080600260008473ffffffffffffffffffffffffffffffffffffffff1673ffffffffffffffffffffffffffffffffffffffff16815260200190815260200160002054119050919050565b6000600260008373ffffffffffffffffffffffffffffffffffffffff1673ffffffffffffffffffffffffffffffffffffffff168152602001908152602001600020549050919050565b610cd833610c3b565b610d17576040517f08c379a0000000000000000000000000000000000000000000000000000000008152600401610d0e90612560565b60405180910390fd5b60003390506000610d266112f7565b9050600060046001816001815401808255809150500390600052602060002090600c0201905086816000019081610d5d9190612722565b50338160010160006101000a81548173ffffffffffffffffffffffffffffffffffffffff021916908373ffffffffffffffffffffffffffffffffffffffff16021790555085816002019081610db29190612722565b50828160030160006101000a81548173ffffffffffffffffffffffffffffffffffffffff021916908373ffffffffffffffffffffffffffffffffffffffff16021790555084816004019081610e079190612722565b5083816005019081610e199190612722565b5081816006019080519060200190610e32929190611a1f565b508273ffffffffffffffffffffffffffffffffffffffff163373ffffffffffffffffffffffffffffffffffffffff166001600480549050610e7391906127f4565b7ff3b3dbb403d4ce424f775b9543353b1bcc3216fc649f392a6509e46420f56fb68a8a8a8a604051610ea89493929190612828565b60405180910390a450505050505050565b60008054906101000a900473ffffffffffffffffffffffffffffffffffffffff1681565b60008111610f20576040517f08c379a0000000000000000000000000000000000000000000000000000000008152600401610f17906128d5565b60405180910390fd5b60008054906101000a900473ffffffffffffffffffffffffffffffffffffffff1673ffffffffffffffffffffffffffffffffffffffff166323b872dd3330846040518463ffffffff1660e01b8152600401610f7d939291906128f5565b6020604051808303816000875af1158015610f9c573d6000803e3d6000fd5b505050506040513d601f19601f82011682018060405250810190610fc09190612958565b506000600260003373ffffffffffffffffffffffffffffffffffffffff1673ffffffffffffffffffffffffffffffffffffffff168152602001908152602001600020540361106c576003339080600181540180825580915050600190039060005260206000200160009091909190916101000a81548173ffffffffffffffffffffffffffffffffffffffff021916908373ffffffffffffffffffffffffffffffffffffffff1602179055505b80600260003373ffffffffffffffffffffffffffffffffffffffff1673ffffffffffffffffffffffffffffffffffffffff16815260200190815260200160002060008282546110bb91906124e0565b9250508190555050565b600080600484815481106110dc576110db612296565b5b90600052602060002090600c0201905060005b600860ff16811015611186578373ffffffffffffffffffffffffffffffffffffffff1682600601828154811061112857611127612296565b5b9060005260206000200160009054906101000a900473ffffffffffffffffffffffffffffffffffffffff1673ffffffffffffffffffffffffffffffffffffffff16036111795760019250505061118d565b80806001019150506110ef565b5060009150505b92915050565b6000600482815481106111a9576111a8612296565b5b90600052602060002090600c0201905080600b0160009054906101000a900460ff161561120b576040517f08c379a0000000000000000000000000000000000000000000000000000000008152600401611202906129d1565b60405180910390fd5b600081600a0154826009015411611246578160030160009054906101000a900473ffffffffffffffffffffffffffffffffffffffff1661126c565b8160010160009054906101000a900473ffffffffffffffffffffffffffffffffffffffff165b9050600082600a015483600901541161128957826009015461128f565b82600a01545b905061129c84838361167e565b600183600b0160006101000a81548160ff021916908315150217905550837ff77ceb5e091d2da041bc760667f9d5fe7a756949eaf29250ad0e60ca6f4c27d9836040516112e99190611f61565b60405180910390a250505050565b60606000600860ff1667ffffffffffffffff8111156113195761131861201a565b5b6040519080825280602002602001820160405280156113475781602001602082028036833780820191505090505b5090506000805b6003805490508110156113f357600260006003838154811061137357611372612296565b5b9060005260206000200160009054906101000a900473ffffffffffffffffffffffffffffffffffffffff1673ffffffffffffffffffffffffffffffffffffffff1673ffffffffffffffffffffffffffffffffffffffff16815260200190815260200160002054826113e491906124e0565b9150808060010191505061134e565b5060008111611437576040517f08c379a000000000000000000000000000000000000000000000000000000000815260040161142e90612a63565b60405180910390fd5b600060038054905067ffffffffffffffff8111156114585761145761201a565b5b6040519080825280602002602001820160405280156114865781602001602082028036833780820191505090505b50905060005b600860ff168160ff161015611674576000834244846040516020016114b393929190612ada565b6040516020818303038152906040528051906020012060001c6114d69190612b46565b90506000805b600380549050811015611664578481815181106114fc576114fb612296565b5b60200260200101516116575760026000600383815481106115205761151f612296565b5b9060005260206000200160009054906101000a900473ffffffffffffffffffffffffffffffffffffffff1673ffffffffffffffffffffffffffffffffffffffff1673ffffffffffffffffffffffffffffffffffffffff168152602001908152602001600020548261159191906124e0565b91508183101561165657600381815481106115af576115ae612296565b5b9060005260206000200160009054906101000a900473ffffffffffffffffffffffffffffffffffffffff16878560ff16815181106115f0576115ef612296565b5b602002602001019073ffffffffffffffffffffffffffffffffffffffff16908173ffffffffffffffffffffffffffffffffffffffff1681525050600185828151811061163f5761163e612296565b5b602002602001019015159081151581525050611664565b5b80806001019150506114dc565b505050808060010191505061148c565b5082935050505090565b60006004848154811061169457611693612296565b5b90600052602060002090600c020190506000805b600860ff168110156118105760008360060182815481106116cc576116cb612296565b5b9060005260206000200160009054906101000a900473ffffffffffffffffffffffffffffffffffffffff1690508360010160009054906101000a900473ffffffffffffffffffffffffffffffffffffffff1673ffffffffffffffffffffffffffffffffffffffff168673ffffffffffffffffffffffffffffffffffffffff161461175757600161175a565b60025b60ff168460080160008373ffffffffffffffffffffffffffffffffffffffff1673ffffffffffffffffffffffffffffffffffffffff16815260200190815260200160002060009054906101000a900460ff1660ff160361180257600260008273ffffffffffffffffffffffffffffffffffffffff1673ffffffffffffffffffffffffffffffffffffffff16815260200190815260200160002054836117ff91906124e0565b92505b5080806001019150506116a8565b5060005b600860ff168110156119df57600083600601828154811061183857611837612296565b5b9060005260206000200160009054906101000a900473ffffffffffffffffffffffffffffffffffffffff1690508360010160009054906101000a900473ffffffffffffffffffffffffffffffffffffffff1673ffffffffffffffffffffffffffffffffffffffff168673ffffffffffffffffffffffffffffffffffffffff16146118c35760026118c6565b60015b60ff168460080160008373ffffffffffffffffffffffffffffffffffffffff1673ffffffffffffffffffffffffffffffffffffffff16815260200190815260200160002060009054906101000a900460ff1660ff16036119d1576000858461192e9190612b77565b905060008054906101000a900473ffffffffffffffffffffffffffffffffffffffff1673ffffffffffffffffffffffffffffffffffffffff1663a9059cbb83836040518363ffffffff1660e01b815260040161198b929190612ba8565b6020604051808303816000875af11580156119aa573d6000803e3d6000fd5b505050506040513d601f19601f820116820180604052508101906119ce9190612958565b50505b508080600101915050611814565b505050505050565b6040518060c0016040528060008152602001606081526020016060815260200160608152602001606081526020016000151581525090565b828054828255906000526020600020908101928215611a98579160200282015b82811115611a975782518260006101000a81548173ffffffffffffffffffffffffffffffffffffffff021916908373ffffffffffffffffffffffffffffffffffffffff16021790555091602001919060010190611a3f565b5b509050611aa59190611aa9565b5090565b5b80821115611ac2576000816000905550600101611aaa565b5090565b600081519050919050565b600082825260208201905092915050565b6000819050602082019050919050565b6000819050919050565b611b0581611af2565b82525050565b600081519050919050565b600082825260208201905092915050565b60005b83811015611b45578082015181840152602081019050611b2a565b60008484015250505050565b6000601f19601f8301169050919050565b6000611b6d82611b0b565b611b778185611b16565b9350611b87818560208601611b27565b611b9081611b51565b840191505092915050565b60008115159050919050565b611bb081611b9b565b82525050565b600060c083016000830151611bce6000860182611afc565b5060208301518482036020860152611be68282611b62565b91505060408301518482036040860152611c008282611b62565b91505060608301518482036060860152611c1a8282611b62565b91505060808301518482036080860152611c348282611b62565b91505060a0830151611c4960a0860182611ba7565b508091505092915050565b6000611c608383611bb6565b905092915050565b6000602082019050919050565b6000611c8082611ac6565b611c8a8185611ad1565b935083602082028501611c9c85611ae2565b8060005b85811015611cd85784840389528151611cb98582611c54565b9450611cc483611c68565b925060208a01995050600181019050611ca0565b50829750879550505050505092915050565b60006020820190508181036000830152611d048184611c75565b905092915050565b6000604051905090565b600080fd5b600080fd5b600073ffffffffffffffffffffffffffffffffffffffff82169050919050565b6000611d4b82611d20565b9050919050565b611d5b81611d40565b8114611d6657600080fd5b50565b600081359050611d7881611d52565b92915050565b600060208284031215611d9457611d93611d16565b5b6000611da284828501611d69565b91505092915050565b600082825260208201905092915050565b6000611dc782611b0b565b611dd18185611dab565b9350611de1818560208601611b27565b611dea81611b51565b840191505092915050565b60006020820190508181036000830152611e0f8184611dbc565b905092915050565b611e2081611af2565b82525050565b6000602082019050611e3b6000830184611e17565b92915050565b611e4a81611af2565b8114611e5557600080fd5b50565b600081359050611e6781611e41565b92915050565b600060208284031215611e8357611e82611d16565b5b6000611e9184828501611e58565b91505092915050565b611ea381611d40565b82525050565b611eb281611b9b565b82525050565b6000610120820190508181036000830152611ed3818c611dbc565b9050611ee2602083018b611e9a565b8181036040830152611ef4818a611dbc565b9050611f036060830189611e9a565b8181036080830152611f158188611dbc565b905081810360a0830152611f298187611dbc565b9050611f3860c0830186611e17565b611f4560e0830185611e17565b611f53610100830184611ea9565b9a9950505050505050505050565b6000602082019050611f766000830184611e9a565b92915050565b600060ff82169050919050565b611f9281611f7c565b8114611f9d57600080fd5b50565b600081359050611faf81611f89565b92915050565b60008060408385031215611fcc57611fcb611d16565b5b6000611fda85828601611e58565b9250506020611feb85828601611fa0565b9150509250929050565b600060208201905061200a6000830184611ea9565b92915050565b600080fd5b600080fd5b7f4e487b7100000000000000000000000000000000000000000000000000000000600052604160045260246000fd5b61205282611b51565b810181811067ffffffffffffffff821117156120715761207061201a565b5b80604052505050565b6000612084611d0c565b90506120908282612049565b919050565b600067ffffffffffffffff8211156120b0576120af61201a565b5b6120b982611b51565b9050602081019050919050565b82818337600083830152505050565b60006120e86120e384612095565b61207a565b90508281526020810184848401111561210457612103612015565b5b61210f8482856120c6565b509392505050565b600082601f83011261212c5761212b612010565b5b813561213c8482602086016120d5565b91505092915050565b6000806000806080858703121561215f5761215e611d16565b5b600085013567ffffffffffffffff81111561217d5761217c611d1b565b5b61218987828801612117565b945050602085013567ffffffffffffffff8111156121aa576121a9611d1b565b5b6121b687828801612117565b935050604085013567ffffffffffffffff8111156121d7576121d6611d1b565b5b6121e387828801612117565b925050606085013567ffffffffffffffff81111561220457612203611d1b565b5b61221087828801612117565b91505092959194509250565b6000819050919050565b600061224161223c61223784611d20565b61221c565b611d20565b9050919050565b600061225382612226565b9050919050565b600061226582612248565b9050919050565b6122758161225a565b82525050565b6000602082019050612290600083018461226c565b92915050565b7f4e487b7100000000000000000000000000000000000000000000000000000000600052603260045260246000fd5b7f4e487b7100000000000000000000000000000000000000000000000000000000600052602260045260246000fd5b6000600282049050600182168061230c57607f821691505b60208210810361231f5761231e6122c5565b5b50919050565b7f416c726561647920766f74656400000000000000000000000000000000000000600082015250565b600061235b600d83611dab565b915061236682612325565b602082019050919050565b6000602082019050818103600083015261238a8161234e565b9050919050565b7f4e6f7420612073656c65637465642061726269747261746f7200000000000000600082015250565b60006123c7601983611dab565b91506123d282612391565b602082019050919050565b600060208201905081810360008301526123f6816123ba565b9050919050565b7f496e76616c696420766f74650000000000000000000000000000000000000000600082015250565b6000612433600c83611dab565b915061243e826123fd565b602082019050919050565b6000602082019050818103600083015261246281612426565b9050919050565b7f4e487b7100000000000000000000000000000000000000000000000000000000600052601160045260246000fd5b60006124a382611af2565b91507fffffffffffffffffffffffffffffffffffffffffffffffffffffffffffffffff82036124d5576124d4612469565b5b600182019050919050565b60006124eb82611af2565b91506124f683611af2565b925082820190508082111561250e5761250d612469565b5b92915050565b7f43616c6c6572206973206e6f7420616e2061726269747261746f720000000000600082015250565b600061254a601b83611dab565b915061255582612514565b602082019050919050565b600060208201905081810360008301526125798161253d565b9050919050565b60008190508160005260206000209050919050565b60006020601f8301049050919050565b600082821b905092915050565b6000600883026125e27fffffffffffffffffffffffffffffffffffffffffffffffffffffffffffffffff826125a5565b6125ec86836125a5565b95508019841693508086168417925050509392505050565b600061261f61261a61261584611af2565b61221c565b611af2565b9050919050565b6000819050919050565b61263983612604565b61264d61264582612626565b8484546125b2565b825550505050565b600090565b612662612655565b61266d818484612630565b505050565b5b818110156126915761268660008261265a565b600181019050612673565b5050565b601f8211156126d6576126a781612580565b6126b084612595565b810160208510156126bf578190505b6126d36126cb85612595565b830182612672565b50505b505050565b600082821c905092915050565b60006126f9600019846008026126db565b1980831691505092915050565b600061271283836126e8565b9150826002028217905092915050565b61272b82611b0b565b67ffffffffffffffff8111156127445761274361201a565b5b61274e82546122f4565b612759828285612695565b600060209050601f83116001811461278c576000841561277a578287015190505b6127848582612706565b8655506127ec565b601f19841661279a86612580565b60005b828110156127c25784890151825560018201915060208501945060208101905061279d565b868310156127df57848901516127db601f8916826126e8565b8355505b6001600288020188555050505b505050505050565b60006127ff82611af2565b915061280a83611af2565b925082820390508181111561282257612821612469565b5b92915050565b600060808201905081810360008301526128428187611dbc565b905081810360208301526128568186611dbc565b9050818103604083015261286a8185611dbc565b9050818103606083015261287e8184611dbc565b905095945050505050565b7f5374616b65206d75737420626520706f73697469766500000000000000000000600082015250565b60006128bf601683611dab565b91506128ca82612889565b602082019050919050565b600060208201905081810360008301526128ee816128b2565b9050919050565b600060608201905061290a6000830186611e9a565b6129176020830185611e9a565b6129246040830184611e17565b949350505050565b61293581611b9b565b811461294057600080fd5b50565b6000815190506129528161292c565b92915050565b60006020828403121561296e5761296d611d16565b5b600061297c84828501612943565b91505092915050565b7f4469737075746520616c7265616479207265736f6c7665640000000000000000600082015250565b60006129bb601883611dab565b91506129c682612985565b602082019050919050565b600060208201905081810360008301526129ea816129ae565b9050919050565b7f546f74616c207374616b65206d7573742062652067726561746572207468616e60008201527f207a65726f000000000000000000000000000000000000000000000000000000602082015250565b6000612a4d602583611dab565b9150612a58826129f1565b604082019050919050565b60006020820190508181036000830152612a7c81612a40565b9050919050565b6000819050919050565b612a9e612a9982611af2565b612a83565b82525050565b60008160f81b9050919050565b6000612abc82612aa4565b9050919050565b612ad4612acf82611f7c565b612ab1565b82525050565b6000612ae68286612a8d565b602082019150612af68285612a8d565b602082019150612b068284612ac3565b600182019150819050949350505050565b7f4e487b7100000000000000000000000000000000000000000000000000000000600052601260045260246000fd5b6000612b5182611af2565b9150612b5c83611af2565b925082612b6c57612b6b612b17565b5b828206905092915050565b6000612b8282611af2565b9150612b8d83611af2565b925082612b9d57612b9c612b17565b5b828204905092915050565b6000604082019050612bbd6000830185611e9a565b612bca6020830184611e17565b939250505056fea2646970667358221220a9c2f74f4604c35b074ed7f1fda9f79e31b464f0ed7d16be689a24a28fa59fca64736f6c634300081b0033",
  "linkReferences": {},
  "deployedLinkReferences": {}
}